{
  "_format": "hh-sol-artifact-1",
  "contractName": "Piracy",
  "sourceName": "contracts/Piracy.sol",
  "abi": [
    {
      "inputs": [],
      "stateMutability": "nonpayable",
      "type": "constructor"
    },
    {
      "anonymous": false,
      "inputs": [
        {
          "indexed": false,
          "internalType": "address",
          "name": "from",
          "type": "address"
        },
        {
          "indexed": false,
          "internalType": "string",
          "name": "file",
          "type": "string"
        }
      ],
      "name": "newFile",
      "type": "event"
    },
    {
      "inputs": [
        {
          "internalType": "address",
          "name": "addr",
          "type": "address"
        }
      ],
      "name": "addAdmin",
      "outputs": [],
      "stateMutability": "nonpayable",
      "type": "function"
    },
    {
      "inputs": [
        {
          "internalType": "string",
          "name": "file",
          "type": "string"
        }
      ],
      "name": "addFile",
      "outputs": [],
      "stateMutability": "nonpayable",
      "type": "function"
    },
    {
      "inputs": [
        {
          "internalType": "address",
          "name": "",
          "type": "address"
        }
      ],
      "name": "admins",
      "outputs": [
        {
          "internalType": "bool",
          "name": "",
          "type": "bool"
        }
      ],
      "stateMutability": "view",
      "type": "function"
    },
    {
      "inputs": [
        {
          "internalType": "address",
          "name": "addr",
          "type": "address"
        }
      ],
      "name": "approve",
      "outputs": [],
      "stateMutability": "nonpayable",
      "type": "function"
    },
    {
      "inputs": [
        {
          "internalType": "uint256",
          "name": "",
          "type": "uint256"
        }
      ],
      "name": "approved",
      "outputs": [
        {
          "internalType": "string",
          "name": "",
          "type": "string"
        }
      ],
      "stateMutability": "view",
      "type": "function"
    },
    {
      "inputs": [
        {
          "internalType": "string",
          "name": "",
          "type": "string"
        }
      ],
      "name": "approvedRequests",
      "outputs": [
        {
          "internalType": "address",
          "name": "",
          "type": "address"
        }
      ],
      "stateMutability": "view",
      "type": "function"
    },
    {
      "inputs": [
        {
          "internalType": "address",
          "name": "addr",
          "type": "address"
        }
      ],
      "name": "checkIsAdmin",
      "outputs": [
        {
          "internalType": "bool",
          "name": "",
          "type": "bool"
        }
      ],
      "stateMutability": "view",
      "type": "function"
    },
    {
      "inputs": [
        {
          "internalType": "string",
          "name": "a",
          "type": "string"
        },
        {
          "internalType": "string",
          "name": "b",
          "type": "string"
        }
      ],
      "name": "compareStrings",
      "outputs": [
        {
          "internalType": "bool",
          "name": "",
          "type": "bool"
        }
      ],
      "stateMutability": "pure",
      "type": "function"
    },
    {
      "inputs": [],
      "name": "getAllFiles",
      "outputs": [
        {
          "internalType": "string[]",
          "name": "",
          "type": "string[]"
        }
      ],
      "stateMutability": "view",
      "type": "function"
    },
    {
      "inputs": [
        {
          "internalType": "string",
          "name": "file",
          "type": "string"
        }
      ],
      "name": "getFileOwner",
      "outputs": [
        {
          "internalType": "address",
          "name": "",
          "type": "address"
        }
      ],
      "stateMutability": "view",
      "type": "function"
    },
    {
      "inputs": [],
      "name": "getPendingAddresses",
      "outputs": [
        {
          "internalType": "address[]",
          "name": "",
          "type": "address[]"
        }
      ],
      "stateMutability": "view",
      "type": "function"
    },
    {
      "inputs": [
        {
          "internalType": "address",
          "name": "addr",
          "type": "address"
        }
      ],
      "name": "getPendingFileFromAddress",
      "outputs": [
        {
          "internalType": "string",
          "name": "",
          "type": "string"
        }
      ],
      "stateMutability": "view",
      "type": "function"
    },
    {
      "inputs": [
        {
          "internalType": "uint256",
          "name": "",
          "type": "uint256"
        }
      ],
      "name": "pendingRequests",
      "outputs": [
        {
          "internalType": "address",
          "name": "",
          "type": "address"
        }
      ],
      "stateMutability": "view",
      "type": "function"
    },
    {
      "inputs": [
        {
          "internalType": "address",
          "name": "",
          "type": "address"
        }
      ],
      "name": "requests",
      "outputs": [
        {
          "internalType": "string",
          "name": "",
          "type": "string"
        }
      ],
      "stateMutability": "view",
      "type": "function"
    }
  ],
  "bytecode": "0x608060405234801561001057600080fd5b5033600160006101000a81548173ffffffffffffffffffffffffffffffffffffffff021916908373ffffffffffffffffffffffffffffffffffffffff1602179055506001600260003373ffffffffffffffffffffffffffffffffffffffff1673ffffffffffffffffffffffffffffffffffffffff16815260200190815260200160002060006101000a81548160ff021916908315150217905550611ecf806100b96000396000f3fe608060405234801561001057600080fd5b50600436106100ea5760003560e01c80637d4061e61161008c578063daea85c511610066578063daea85c5146102a9578063e4de6398146102c5578063eb9b9b64146102f5578063ff24b5d514610311576100ea565b80637d4061e614610219578063bed34bba14610249578063d953689d14610279576100ea565b8063470933e1116100c8578063470933e11461017f5780634967e428146101af57806370480275146101cd57806374adad1d146101e9576100ea565b806338fa8f58146100ef5780633c652a9a1461011f578063429b62e51461014f575b600080fd5b6101096004803603810190610104919061146e565b61032f565b60405161011691906118ef565b60405180910390f35b6101396004803603810190610134919061151b565b610424565b60405161014691906118ef565b60405180910390f35b61016960048036038101906101649190611445565b610463565b604051610176919061197e565b60405180910390f35b6101996004803603810190610194919061146e565b610483565b6040516101a691906118ef565b60405180910390f35b6101b76104cc565b6040516101c4919061193a565b60405180910390f35b6101e760048036038101906101e29190611445565b6105e6565b005b61020360048036038101906101fe9190611445565b610728565b6040516102109190611999565b60405180910390f35b610233600480360381019061022e919061151b565b6107c8565b6040516102409190611999565b60405180910390f35b610263600480360381019061025e91906114af565b610874565b604051610270919061197e565b60405180910390f35b610293600480360381019061028e9190611445565b6108cd565b6040516102a0919061197e565b60405180910390f35b6102c360048036038101906102be9190611445565b610923565b005b6102df60048036038101906102da9190611445565b610cce565b6040516102ec9190611999565b60405180910390f35b61030f600480360381019061030a919061146e565b610d9f565b005b610319610f78565b604051610326919061195c565b60405180910390f35b60008073ffffffffffffffffffffffffffffffffffffffff1660058360405161035891906118c1565b908152602001604051809103902060009054906101000a900473ffffffffffffffffffffffffffffffffffffffff1673ffffffffffffffffffffffffffffffffffffffff1614156103de576040517f08c379a00000000000000000000000000000000000000000000000000000000081526004016103d590611a1b565b60405180910390fd5b6005826040516103ee91906118c1565b908152602001604051809103902060009054906101000a900473ffffffffffffffffffffffffffffffffffffffff169050919050565b6004818154811061043457600080fd5b906000526020600020016000915054906101000a900473ffffffffffffffffffffffffffffffffffffffff1681565b60026020528060005260406000206000915054906101000a900460ff1681565b6005818051602081018201805184825260208301602085012081835280955050505050506000915054906101000a900473ffffffffffffffffffffffffffffffffffffffff1681565b6060600260003373ffffffffffffffffffffffffffffffffffffffff1673ffffffffffffffffffffffffffffffffffffffff16815260200190815260200160002060009054906101000a900460ff1661055a576040517f08c379a0000000000000000000000000000000000000000000000000000000008152600401610551906119db565b60405180910390fd5b60048054806020026020016040519081016040528092919081815260200182805480156105dc57602002820191906000526020600020905b8160009054906101000a900473ffffffffffffffffffffffffffffffffffffffff1673ffffffffffffffffffffffffffffffffffffffff1681526020019060010190808311610592575b5050505050905090565b600160009054906101000a900473ffffffffffffffffffffffffffffffffffffffff1673ffffffffffffffffffffffffffffffffffffffff163373ffffffffffffffffffffffffffffffffffffffff161461064057600080fd5b600260008273ffffffffffffffffffffffffffffffffffffffff1673ffffffffffffffffffffffffffffffffffffffff16815260200190815260200160002060009054906101000a900460ff16156106cd576040517f08c379a00000000000000000000000000000000000000000000000000000000081526004016106c4906119bb565b60405180910390fd5b6001600260008373ffffffffffffffffffffffffffffffffffffffff1673ffffffffffffffffffffffffffffffffffffffff16815260200190815260200160002060006101000a81548160ff02191690831515021790555050565b6003602052806000526040600020600091509050805461074790611c2e565b80601f016020809104026020016040519081016040528092919081815260200182805461077390611c2e565b80156107c05780601f10610795576101008083540402835291602001916107c0565b820191906000526020600020905b8154815290600101906020018083116107a357829003601f168201915b505050505081565b600681815481106107d857600080fd5b9060005260206000200160009150905080546107f390611c2e565b80601f016020809104026020016040519081016040528092919081815260200182805461081f90611c2e565b801561086c5780601f106108415761010080835404028352916020019161086c565b820191906000526020600020905b81548152906001019060200180831161084f57829003601f168201915b505050505081565b60008160405160200161088791906118c1565b60405160208183030381529060405280519060200120836040516020016108ae91906118c1565b6040516020818303038152906040528051906020012014905092915050565b6000600260008373ffffffffffffffffffffffffffffffffffffffff1673ffffffffffffffffffffffffffffffffffffffff16815260200190815260200160002060009054906101000a900460ff169050919050565b600260003373ffffffffffffffffffffffffffffffffffffffff1673ffffffffffffffffffffffffffffffffffffffff16815260200190815260200160002060009054906101000a900460ff166109af576040517f08c379a00000000000000000000000000000000000000000000000000000000081526004016109a6906119db565b60405180910390fd5b610a8f600360008373ffffffffffffffffffffffffffffffffffffffff1673ffffffffffffffffffffffffffffffffffffffff16815260200190815260200160002080546109fc90611c2e565b80601f0160208091040260200160405190810160405280929190818152602001828054610a2890611c2e565b8015610a755780601f10610a4a57610100808354040283529160200191610a75565b820191906000526020600020905b815481529060010190602001808311610a5857829003601f168201915b505050505060405180602001604052806000815250610874565b15610acf576040517f08c379a0000000000000000000000000000000000000000000000000000000008152600401610ac690611a3b565b60405180910390fd5b6006600360008373ffffffffffffffffffffffffffffffffffffffff1673ffffffffffffffffffffffffffffffffffffffff16815260200190815260200160002090806001815401808255809150506001900390600052602060002001600090919091909150908054610b4190611c2e565b610b4c929190611283565b50806005600360008473ffffffffffffffffffffffffffffffffffffffff1673ffffffffffffffffffffffffffffffffffffffff168152602001908152602001600020604051610b9c91906118d8565b908152602001604051809103902060006101000a81548173ffffffffffffffffffffffffffffffffffffffff021916908373ffffffffffffffffffffffffffffffffffffffff1602179055507f6ddb52e96a25fdf8b793ece0ecd51ba586f9ef26091508eafab768a59c8881a781600360008473ffffffffffffffffffffffffffffffffffffffff1673ffffffffffffffffffffffffffffffffffffffff168152602001908152602001600020604051610c5792919061190a565b60405180910390a160405180602001604052806000815250600360008373ffffffffffffffffffffffffffffffffffffffff1673ffffffffffffffffffffffffffffffffffffffff1681526020019081526020016000209080519060200190610cc1929190611310565b50610ccb81611051565b50565b6060600360008373ffffffffffffffffffffffffffffffffffffffff1673ffffffffffffffffffffffffffffffffffffffff1681526020019081526020016000208054610d1a90611c2e565b80601f0160208091040260200160405190810160405280929190818152602001828054610d4690611c2e565b8015610d935780601f10610d6857610100808354040283529160200191610d93565b820191906000526020600020905b815481529060010190602001808311610d7657829003601f168201915b50505050509050919050565b610e7f600360003373ffffffffffffffffffffffffffffffffffffffff1673ffffffffffffffffffffffffffffffffffffffff1681526020019081526020016000208054610dec90611c2e565b80601f0160208091040260200160405190810160405280929190818152602001828054610e1890611c2e565b8015610e655780601f10610e3a57610100808354040283529160200191610e65565b820191906000526020600020905b815481529060010190602001808311610e4857829003601f168201915b505050505060405180602001604052806000815250610874565b610ebe576040517f08c379a0000000000000000000000000000000000000000000000000000000008152600401610eb5906119fb565b60405180910390fd5b80600360003373ffffffffffffffffffffffffffffffffffffffff1673ffffffffffffffffffffffffffffffffffffffff1681526020019081526020016000209080519060200190610f11929190611310565b506004339080600181540180825580915050600190039060005260206000200160009091909190916101000a81548173ffffffffffffffffffffffffffffffffffffffff021916908373ffffffffffffffffffffffffffffffffffffffff16021790555050565b60606006805480602002602001604051908101604052809291908181526020016000905b82821015611048578382906000526020600020018054610fbb90611c2e565b80601f0160208091040260200160405190810160405280929190818152602001828054610fe790611c2e565b80156110345780601f1061100957610100808354040283529160200191611034565b820191906000526020600020905b81548152906001019060200180831161101757829003601f168201915b505050505081526020019060010190610f9c565b50505050905090565b600080600090505b600480549050811015611119578273ffffffffffffffffffffffffffffffffffffffff16600482815481106110b7577f4e487b7100000000000000000000000000000000000000000000000000000000600052603260045260246000fd5b9060005260206000200160009054906101000a900473ffffffffffffffffffffffffffffffffffffffff1673ffffffffffffffffffffffffffffffffffffffff16141561110657809150611119565b808061111190611c91565b915050611059565b506004600160048054905061112e9190611b70565b81548110611165577f4e487b7100000000000000000000000000000000000000000000000000000000600052603260045260246000fd5b9060005260206000200160009054906101000a900473ffffffffffffffffffffffffffffffffffffffff16600482815481106111ca577f4e487b7100000000000000000000000000000000000000000000000000000000600052603260045260246000fd5b9060005260206000200160006101000a81548173ffffffffffffffffffffffffffffffffffffffff021916908373ffffffffffffffffffffffffffffffffffffffff160217905550600480548061124a577f4e487b7100000000000000000000000000000000000000000000000000000000600052603160045260246000fd5b6001900381819060005260206000200160006101000a81549073ffffffffffffffffffffffffffffffffffffffff021916905590555050565b82805461128f90611c2e565b90600052602060002090601f0160209004810192826112b157600085556112ff565b82601f106112c257805485556112ff565b828001600101855582156112ff57600052602060002091601f016020900482015b828111156112fe5782548255916001019190600101906112e3565b5b50905061130c9190611396565b5090565b82805461131c90611c2e565b90600052602060002090601f01602090048101928261133e5760008555611385565b82601f1061135757805160ff1916838001178555611385565b82800160010185558215611385579182015b82811115611384578251825591602001919060010190611369565b5b5090506113929190611396565b5090565b5b808211156113af576000816000905550600101611397565b5090565b60006113c66113c184611a80565b611a5b565b9050828152602081018484840111156113de57600080fd5b6113e9848285611bec565b509392505050565b60008135905061140081611e6b565b92915050565b600082601f83011261141757600080fd5b81356114278482602086016113b3565b91505092915050565b60008135905061143f81611e82565b92915050565b60006020828403121561145757600080fd5b6000611465848285016113f1565b91505092915050565b60006020828403121561148057600080fd5b600082013567ffffffffffffffff81111561149a57600080fd5b6114a684828501611406565b91505092915050565b600080604083850312156114c257600080fd5b600083013567ffffffffffffffff8111156114dc57600080fd5b6114e885828601611406565b925050602083013567ffffffffffffffff81111561150557600080fd5b61151185828601611406565b9150509250929050565b60006020828403121561152d57600080fd5b600061153b84828501611430565b91505092915050565b60006115508383611570565b60208301905092915050565b60006115688383611670565b905092915050565b61157981611ba4565b82525050565b61158881611ba4565b82525050565b600061159982611ae6565b6115a38185611b21565b93506115ae83611ab1565b8060005b838110156115df5781516115c68882611544565b97506115d183611b07565b9250506001810190506115b2565b5085935050505092915050565b60006115f782611af1565b6116018185611b32565b93508360208202850161161385611ac1565b8060005b8581101561164f5784840389528151611630858261155c565b945061163b83611b14565b925060208a01995050600181019050611617565b50829750879550505050505092915050565b61166a81611bb6565b82525050565b600061167b82611afc565b6116858185611b43565b9350611695818560208601611bfb565b61169e81611d67565b840191505092915050565b60006116b482611afc565b6116be8185611b54565b93506116ce818560208601611bfb565b6116d781611d67565b840191505092915050565b60006116ed82611afc565b6116f78185611b65565b9350611707818560208601611bfb565b80840191505092915050565b6000815461172081611c2e565b61172a8186611b54565b9450600182166000811461174557600181146117575761178a565b60ff198316865260208601935061178a565b61176085611ad1565b60005b8381101561178257815481890152600182019150602081019050611763565b808801955050505b50505092915050565b600081546117a081611c2e565b6117aa8186611b65565b945060018216600081146117c557600181146117d657611809565b60ff19831686528186019350611809565b6117df85611ad1565b60005b83811015611801578154818901526001820191506020810190506117e2565b838801955050505b50505092915050565b600061181f601383611b54565b915061182a82611d78565b602082019050919050565b6000611842600c83611b54565b915061184d82611da1565b602082019050919050565b6000611865601783611b54565b915061187082611dca565b602082019050919050565b6000611888600c83611b54565b915061189382611df3565b602082019050919050565b60006118ab602483611b54565b91506118b682611e1c565b604082019050919050565b60006118cd82846116e2565b915081905092915050565b60006118e48284611793565b915081905092915050565b6000602082019050611904600083018461157f565b92915050565b600060408201905061191f600083018561157f565b81810360208301526119318184611713565b90509392505050565b60006020820190508181036000830152611954818461158e565b905092915050565b6000602082019050818103600083015261197681846115ec565b905092915050565b60006020820190506119936000830184611661565b92915050565b600060208201905081810360008301526119b381846116a9565b905092915050565b600060208201905081810360008301526119d481611812565b9050919050565b600060208201905081810360008301526119f481611835565b9050919050565b60006020820190508181036000830152611a1481611858565b9050919050565b60006020820190508181036000830152611a348161187b565b9050919050565b60006020820190508181036000830152611a548161189e565b9050919050565b6000611a65611a76565b9050611a718282611c60565b919050565b6000604051905090565b600067ffffffffffffffff821115611a9b57611a9a611d38565b5b611aa482611d67565b9050602081019050919050565b6000819050602082019050919050565b6000819050602082019050919050565b60008190508160005260206000209050919050565b600081519050919050565b600081519050919050565b600081519050919050565b6000602082019050919050565b6000602082019050919050565b600082825260208201905092915050565b600082825260208201905092915050565b600082825260208201905092915050565b600082825260208201905092915050565b600081905092915050565b6000611b7b82611be2565b9150611b8683611be2565b925082821015611b9957611b98611cda565b5b828203905092915050565b6000611baf82611bc2565b9050919050565b60008115159050919050565b600073ffffffffffffffffffffffffffffffffffffffff82169050919050565b6000819050919050565b82818337600083830152505050565b60005b83811015611c19578082015181840152602081019050611bfe565b83811115611c28576000848401525b50505050565b60006002820490506001821680611c4657607f821691505b60208210811415611c5a57611c59611d09565b5b50919050565b611c6982611d67565b810181811067ffffffffffffffff82111715611c8857611c87611d38565b5b80604052505050565b6000611c9c82611be2565b91507fffffffffffffffffffffffffffffffffffffffffffffffffffffffffffffffff821415611ccf57611cce611cda565b5b600182019050919050565b7f4e487b7100000000000000000000000000000000000000000000000000000000600052601160045260246000fd5b7f4e487b7100000000000000000000000000000000000000000000000000000000600052602260045260246000fd5b7f4e487b7100000000000000000000000000000000000000000000000000000000600052604160045260246000fd5b6000601f19601f8301169050919050565b7f41646d696e20616c726561647920616464656400000000000000000000000000600082015250565b7f4e6f7420616e2061646d696e0000000000000000000000000000000000000000600082015250565b7f5265717565737420616c72656164792070656e64696e67000000000000000000600082015250565b7f4e6f20737563682066696c650000000000000000000000000000000000000000600082015250565b7f4e6f2070656e64696e6720726571756573747320666f7220746869732061646460008201527f7265737300000000000000000000000000000000000000000000000000000000602082015250565b611e7481611ba4565b8114611e7f57600080fd5b50565b611e8b81611be2565b8114611e9657600080fd5b5056fea26469706673582212201e8a89e2ba416c4edf21386c9cc1f3be983d9e52b1d676ea1130b9b45851fde264736f6c63430008040033",
  "linkReferences": {},
  "deployedLinkReferences": {}
}