{
  "_format": "hh-sol-artifact-1",
  "contractName": "Piracy",
  "sourceName": "contracts/Piracy.sol",
  "abi": [
    {
      "inputs": [],
      "stateMutability": "nonpayable",
      "type": "constructor"
    },
    {
      "anonymous": false,
      "inputs": [
        {
          "indexed": false,
          "internalType": "address",
          "name": "from",
          "type": "address"
        },
        {
          "indexed": false,
          "internalType": "string",
          "name": "file",
          "type": "string"
        }
      ],
      "name": "newFile",
      "type": "event"
    },
    {
      "inputs": [
        {
          "internalType": "address",
          "name": "addr",
          "type": "address"
        }
      ],
      "name": "addAdmin",
      "outputs": [],
      "stateMutability": "nonpayable",
      "type": "function"
    },
    {
      "inputs": [
        {
          "internalType": "string",
          "name": "file",
          "type": "string"
        }
      ],
      "name": "addFile",
      "outputs": [],
      "stateMutability": "nonpayable",
      "type": "function"
    },
    {
      "inputs": [
        {
          "internalType": "address",
          "name": "",
          "type": "address"
        }
      ],
      "name": "admins",
      "outputs": [
        {
          "internalType": "bool",
          "name": "",
          "type": "bool"
        }
      ],
      "stateMutability": "view",
      "type": "function"
    },
    {
      "inputs": [
        {
          "internalType": "address",
          "name": "addr",
          "type": "address"
        }
      ],
      "name": "approve",
      "outputs": [],
      "stateMutability": "nonpayable",
      "type": "function"
    },
    {
      "inputs": [
        {
          "internalType": "uint256",
          "name": "",
          "type": "uint256"
        }
      ],
      "name": "approved",
      "outputs": [
        {
          "internalType": "string",
          "name": "",
          "type": "string"
        }
      ],
      "stateMutability": "view",
      "type": "function"
    },
    {
      "inputs": [
        {
          "internalType": "string",
          "name": "",
          "type": "string"
        }
      ],
      "name": "approvedRequests",
      "outputs": [
        {
          "internalType": "address",
          "name": "",
          "type": "address"
        }
      ],
      "stateMutability": "view",
      "type": "function"
    },
    {
      "inputs": [
        {
          "internalType": "address",
          "name": "addr",
          "type": "address"
        }
      ],
      "name": "checkIsAdmin",
      "outputs": [
        {
          "internalType": "bool",
          "name": "",
          "type": "bool"
        }
      ],
      "stateMutability": "view",
      "type": "function"
    },
    {
      "inputs": [
        {
          "internalType": "string",
          "name": "a",
          "type": "string"
        },
        {
          "internalType": "string",
          "name": "b",
          "type": "string"
        }
      ],
      "name": "compareStrings",
      "outputs": [
        {
          "internalType": "bool",
          "name": "",
          "type": "bool"
        }
      ],
      "stateMutability": "pure",
      "type": "function"
    },
    {
      "inputs": [
        {
          "internalType": "address",
          "name": "addr",
          "type": "address"
        }
      ],
      "name": "deleteFile",
      "outputs": [],
      "stateMutability": "nonpayable",
      "type": "function"
    },
    {
      "inputs": [],
      "name": "getAllFiles",
      "outputs": [
        {
          "internalType": "string[]",
          "name": "",
          "type": "string[]"
        }
      ],
      "stateMutability": "view",
      "type": "function"
    },
    {
      "inputs": [
        {
          "internalType": "string",
          "name": "file",
          "type": "string"
        }
      ],
      "name": "getFileOwner",
      "outputs": [
        {
          "internalType": "address",
          "name": "",
          "type": "address"
        }
      ],
      "stateMutability": "view",
      "type": "function"
    },
    {
      "inputs": [],
      "name": "getPendingAddresses",
      "outputs": [
        {
          "internalType": "address[]",
          "name": "",
          "type": "address[]"
        }
      ],
      "stateMutability": "view",
      "type": "function"
    },
    {
      "inputs": [
        {
          "internalType": "address",
          "name": "addr",
          "type": "address"
        }
      ],
      "name": "getPendingFileFromAddress",
      "outputs": [
        {
          "internalType": "string",
          "name": "",
          "type": "string"
        }
      ],
      "stateMutability": "view",
      "type": "function"
    },
    {
      "inputs": [
        {
          "internalType": "address",
          "name": "addr",
          "type": "address"
        }
      ],
      "name": "getPendingRequest",
      "outputs": [
        {
          "internalType": "string",
          "name": "",
          "type": "string"
        }
      ],
      "stateMutability": "view",
      "type": "function"
    },
    {
      "inputs": [
        {
          "internalType": "uint256",
          "name": "",
          "type": "uint256"
        }
      ],
      "name": "pendingRequests",
      "outputs": [
        {
          "internalType": "address",
          "name": "",
          "type": "address"
        }
      ],
      "stateMutability": "view",
      "type": "function"
    },
    {
      "inputs": [
        {
          "internalType": "address",
          "name": "",
          "type": "address"
        }
      ],
      "name": "requests",
      "outputs": [
        {
          "internalType": "string",
          "name": "",
          "type": "string"
        }
      ],
      "stateMutability": "view",
      "type": "function"
    }
  ],
  "bytecode": "0x608060405234801561001057600080fd5b5033600160006101000a81548173ffffffffffffffffffffffffffffffffffffffff021916908373ffffffffffffffffffffffffffffffffffffffff1602179055506001600260003373ffffffffffffffffffffffffffffffffffffffff1673ffffffffffffffffffffffffffffffffffffffff16815260200190815260200160002060006101000a81548160ff02191690831515021790555061233d806100b96000396000f3fe608060405234801561001057600080fd5b50600436106101005760003560e01c80637d4061e611610097578063daea85c511610066578063daea85c51461030b578063e4de639814610327578063eb9b9b6414610357578063ff24b5d51461037357610100565b80637d4061e61461024b578063817697b11461027b578063bed34bba146102ab578063d953689d146102db57610100565b8063470933e1116100d3578063470933e1146101b15780634967e428146101e157806370480275146101ff57806374adad1d1461021b57610100565b80631e3d84171461010557806338fa8f58146101215780633c652a9a14610151578063429b62e514610181575b600080fd5b61011f600480360381019061011a91906118b3565b610391565b005b61013b600480360381019061013691906118dc565b6105ac565b6040516101489190611d5d565b60405180910390f35b61016b60048036038101906101669190611989565b6106a1565b6040516101789190611d5d565b60405180910390f35b61019b600480360381019061019691906118b3565b6106e0565b6040516101a89190611dec565b60405180910390f35b6101cb60048036038101906101c691906118dc565b610700565b6040516101d89190611d5d565b60405180910390f35b6101e9610749565b6040516101f69190611da8565b60405180910390f35b610219600480360381019061021491906118b3565b610863565b005b610235600480360381019061023091906118b3565b6109a5565b6040516102429190611e07565b60405180910390f35b61026560048036038101906102609190611989565b610a45565b6040516102729190611e07565b60405180910390f35b610295600480360381019061029091906118b3565b610af1565b6040516102a29190611e07565b60405180910390f35b6102c560048036038101906102c0919061191d565b610ce2565b6040516102d29190611dec565b60405180910390f35b6102f560048036038101906102f091906118b3565b610d3b565b6040516103029190611dec565b60405180910390f35b610325600480360381019061032091906118b3565b610d91565b005b610341600480360381019061033c91906118b3565b61113c565b60405161034e9190611e07565b60405180910390f35b610371600480360381019061036c91906118dc565b61120d565b005b61037b6113e6565b6040516103889190611dca565b60405180910390f35b600260003373ffffffffffffffffffffffffffffffffffffffff1673ffffffffffffffffffffffffffffffffffffffff16815260200190815260200160002060009054906101000a900460ff1661041d576040517f08c379a000000000000000000000000000000000000000000000000000000000815260040161041490611e49565b60405180910390fd5b6104fd600360008373ffffffffffffffffffffffffffffffffffffffff1673ffffffffffffffffffffffffffffffffffffffff168152602001908152602001600020805461046a9061209c565b80601f01602080910402602001604051908101604052809291908181526020018280546104969061209c565b80156104e35780601f106104b8576101008083540402835291602001916104e3565b820191906000526020600020905b8154815290600101906020018083116104c657829003601f168201915b505050505060405180602001604052806000815250610ce2565b1561053d576040517f08c379a000000000000000000000000000000000000000000000000000000000815260040161053490611ea9565b60405180910390fd5b60405180602001604052806000815250600360008373ffffffffffffffffffffffffffffffffffffffff1673ffffffffffffffffffffffffffffffffffffffff168152602001908152602001600020908051906020019061059f9291906116f1565b506105a9816114bf565b50565b60008073ffffffffffffffffffffffffffffffffffffffff166005836040516105d59190611d2f565b908152602001604051809103902060009054906101000a900473ffffffffffffffffffffffffffffffffffffffff1673ffffffffffffffffffffffffffffffffffffffff16141561065b576040517f08c379a000000000000000000000000000000000000000000000000000000000815260040161065290611e89565b60405180910390fd5b60058260405161066b9190611d2f565b908152602001604051809103902060009054906101000a900473ffffffffffffffffffffffffffffffffffffffff169050919050565b600481815481106106b157600080fd5b906000526020600020016000915054906101000a900473ffffffffffffffffffffffffffffffffffffffff1681565b60026020528060005260406000206000915054906101000a900460ff1681565b6005818051602081018201805184825260208301602085012081835280955050505050506000915054906101000a900473ffffffffffffffffffffffffffffffffffffffff1681565b6060600260003373ffffffffffffffffffffffffffffffffffffffff1673ffffffffffffffffffffffffffffffffffffffff16815260200190815260200160002060009054906101000a900460ff166107d7576040517f08c379a00000000000000000000000000000000000000000000000000000000081526004016107ce90611e49565b60405180910390fd5b600480548060200260200160405190810160405280929190818152602001828054801561085957602002820191906000526020600020905b8160009054906101000a900473ffffffffffffffffffffffffffffffffffffffff1673ffffffffffffffffffffffffffffffffffffffff168152602001906001019080831161080f575b5050505050905090565b600160009054906101000a900473ffffffffffffffffffffffffffffffffffffffff1673ffffffffffffffffffffffffffffffffffffffff163373ffffffffffffffffffffffffffffffffffffffff16146108bd57600080fd5b600260008273ffffffffffffffffffffffffffffffffffffffff1673ffffffffffffffffffffffffffffffffffffffff16815260200190815260200160002060009054906101000a900460ff161561094a576040517f08c379a000000000000000000000000000000000000000000000000000000000815260040161094190611e29565b60405180910390fd5b6001600260008373ffffffffffffffffffffffffffffffffffffffff1673ffffffffffffffffffffffffffffffffffffffff16815260200190815260200160002060006101000a81548160ff02191690831515021790555050565b600360205280600052604060002060009150905080546109c49061209c565b80601f01602080910402602001604051908101604052809291908181526020018280546109f09061209c565b8015610a3d5780601f10610a1257610100808354040283529160200191610a3d565b820191906000526020600020905b815481529060010190602001808311610a2057829003601f168201915b505050505081565b60068181548110610a5557600080fd5b906000526020600020016000915090508054610a709061209c565b80601f0160208091040260200160405190810160405280929190818152602001828054610a9c9061209c565b8015610ae95780601f10610abe57610100808354040283529160200191610ae9565b820191906000526020600020905b815481529060010190602001808311610acc57829003601f168201915b505050505081565b6060610bd3600360008473ffffffffffffffffffffffffffffffffffffffff1673ffffffffffffffffffffffffffffffffffffffff1681526020019081526020016000208054610b409061209c565b80601f0160208091040260200160405190810160405280929190818152602001828054610b6c9061209c565b8015610bb95780601f10610b8e57610100808354040283529160200191610bb9565b820191906000526020600020905b815481529060010190602001808311610b9c57829003601f168201915b505050505060405180602001604052806000815250610ce2565b15610c13576040517f08c379a0000000000000000000000000000000000000000000000000000000008152600401610c0a90611ea9565b60405180910390fd5b600360008373ffffffffffffffffffffffffffffffffffffffff1673ffffffffffffffffffffffffffffffffffffffff1681526020019081526020016000208054610c5d9061209c565b80601f0160208091040260200160405190810160405280929190818152602001828054610c899061209c565b8015610cd65780601f10610cab57610100808354040283529160200191610cd6565b820191906000526020600020905b815481529060010190602001808311610cb957829003601f168201915b50505050509050919050565b600081604051602001610cf59190611d2f565b6040516020818303038152906040528051906020012083604051602001610d1c9190611d2f565b6040516020818303038152906040528051906020012014905092915050565b6000600260008373ffffffffffffffffffffffffffffffffffffffff1673ffffffffffffffffffffffffffffffffffffffff16815260200190815260200160002060009054906101000a900460ff169050919050565b600260003373ffffffffffffffffffffffffffffffffffffffff1673ffffffffffffffffffffffffffffffffffffffff16815260200190815260200160002060009054906101000a900460ff16610e1d576040517f08c379a0000000000000000000000000000000000000000000000000000000008152600401610e1490611e49565b60405180910390fd5b610efd600360008373ffffffffffffffffffffffffffffffffffffffff1673ffffffffffffffffffffffffffffffffffffffff1681526020019081526020016000208054610e6a9061209c565b80601f0160208091040260200160405190810160405280929190818152602001828054610e969061209c565b8015610ee35780601f10610eb857610100808354040283529160200191610ee3565b820191906000526020600020905b815481529060010190602001808311610ec657829003601f168201915b505050505060405180602001604052806000815250610ce2565b15610f3d576040517f08c379a0000000000000000000000000000000000000000000000000000000008152600401610f3490611ea9565b60405180910390fd5b6006600360008373ffffffffffffffffffffffffffffffffffffffff1673ffffffffffffffffffffffffffffffffffffffff16815260200190815260200160002090806001815401808255809150506001900390600052602060002001600090919091909150908054610faf9061209c565b610fba929190611777565b50806005600360008473ffffffffffffffffffffffffffffffffffffffff1673ffffffffffffffffffffffffffffffffffffffff16815260200190815260200160002060405161100a9190611d46565b908152602001604051809103902060006101000a81548173ffffffffffffffffffffffffffffffffffffffff021916908373ffffffffffffffffffffffffffffffffffffffff1602179055507f6ddb52e96a25fdf8b793ece0ecd51ba586f9ef26091508eafab768a59c8881a781600360008473ffffffffffffffffffffffffffffffffffffffff1673ffffffffffffffffffffffffffffffffffffffff1681526020019081526020016000206040516110c5929190611d78565b60405180910390a160405180602001604052806000815250600360008373ffffffffffffffffffffffffffffffffffffffff1673ffffffffffffffffffffffffffffffffffffffff168152602001908152602001600020908051906020019061112f9291906116f1565b50611139816114bf565b50565b6060600360008373ffffffffffffffffffffffffffffffffffffffff1673ffffffffffffffffffffffffffffffffffffffff16815260200190815260200160002080546111889061209c565b80601f01602080910402602001604051908101604052809291908181526020018280546111b49061209c565b80156112015780601f106111d657610100808354040283529160200191611201565b820191906000526020600020905b8154815290600101906020018083116111e457829003601f168201915b50505050509050919050565b6112ed600360003373ffffffffffffffffffffffffffffffffffffffff1673ffffffffffffffffffffffffffffffffffffffff168152602001908152602001600020805461125a9061209c565b80601f01602080910402602001604051908101604052809291908181526020018280546112869061209c565b80156112d35780601f106112a8576101008083540402835291602001916112d3565b820191906000526020600020905b8154815290600101906020018083116112b657829003601f168201915b505050505060405180602001604052806000815250610ce2565b61132c576040517f08c379a000000000000000000000000000000000000000000000000000000000815260040161132390611e69565b60405180910390fd5b80600360003373ffffffffffffffffffffffffffffffffffffffff1673ffffffffffffffffffffffffffffffffffffffff168152602001908152602001600020908051906020019061137f9291906116f1565b506004339080600181540180825580915050600190039060005260206000200160009091909190916101000a81548173ffffffffffffffffffffffffffffffffffffffff021916908373ffffffffffffffffffffffffffffffffffffffff16021790555050565b60606006805480602002602001604051908101604052809291908181526020016000905b828210156114b65783829060005260206000200180546114299061209c565b80601f01602080910402602001604051908101604052809291908181526020018280546114559061209c565b80156114a25780601f10611477576101008083540402835291602001916114a2565b820191906000526020600020905b81548152906001019060200180831161148557829003601f168201915b50505050508152602001906001019061140a565b50505050905090565b600080600090505b600480549050811015611587578273ffffffffffffffffffffffffffffffffffffffff1660048281548110611525577f4e487b7100000000000000000000000000000000000000000000000000000000600052603260045260246000fd5b9060005260206000200160009054906101000a900473ffffffffffffffffffffffffffffffffffffffff1673ffffffffffffffffffffffffffffffffffffffff16141561157457809150611587565b808061157f906120ff565b9150506114c7565b506004600160048054905061159c9190611fde565b815481106115d3577f4e487b7100000000000000000000000000000000000000000000000000000000600052603260045260246000fd5b9060005260206000200160009054906101000a900473ffffffffffffffffffffffffffffffffffffffff1660048281548110611638577f4e487b7100000000000000000000000000000000000000000000000000000000600052603260045260246000fd5b9060005260206000200160006101000a81548173ffffffffffffffffffffffffffffffffffffffff021916908373ffffffffffffffffffffffffffffffffffffffff16021790555060048054806116b8577f4e487b7100000000000000000000000000000000000000000000000000000000600052603160045260246000fd5b6001900381819060005260206000200160006101000a81549073ffffffffffffffffffffffffffffffffffffffff021916905590555050565b8280546116fd9061209c565b90600052602060002090601f01602090048101928261171f5760008555611766565b82601f1061173857805160ff1916838001178555611766565b82800160010185558215611766579182015b8281111561176557825182559160200191906001019061174a565b5b5090506117739190611804565b5090565b8280546117839061209c565b90600052602060002090601f0160209004810192826117a557600085556117f3565b82601f106117b657805485556117f3565b828001600101855582156117f357600052602060002091601f016020900482015b828111156117f25782548255916001019190600101906117d7565b5b5090506118009190611804565b5090565b5b8082111561181d576000816000905550600101611805565b5090565b600061183461182f84611eee565b611ec9565b90508281526020810184848401111561184c57600080fd5b61185784828561205a565b509392505050565b60008135905061186e816122d9565b92915050565b600082601f83011261188557600080fd5b8135611895848260208601611821565b91505092915050565b6000813590506118ad816122f0565b92915050565b6000602082840312156118c557600080fd5b60006118d38482850161185f565b91505092915050565b6000602082840312156118ee57600080fd5b600082013567ffffffffffffffff81111561190857600080fd5b61191484828501611874565b91505092915050565b6000806040838503121561193057600080fd5b600083013567ffffffffffffffff81111561194a57600080fd5b61195685828601611874565b925050602083013567ffffffffffffffff81111561197357600080fd5b61197f85828601611874565b9150509250929050565b60006020828403121561199b57600080fd5b60006119a98482850161189e565b91505092915050565b60006119be83836119de565b60208301905092915050565b60006119d68383611ade565b905092915050565b6119e781612012565b82525050565b6119f681612012565b82525050565b6000611a0782611f54565b611a118185611f8f565b9350611a1c83611f1f565b8060005b83811015611a4d578151611a3488826119b2565b9750611a3f83611f75565b925050600181019050611a20565b5085935050505092915050565b6000611a6582611f5f565b611a6f8185611fa0565b935083602082028501611a8185611f2f565b8060005b85811015611abd5784840389528151611a9e85826119ca565b9450611aa983611f82565b925060208a01995050600181019050611a85565b50829750879550505050505092915050565b611ad881612024565b82525050565b6000611ae982611f6a565b611af38185611fb1565b9350611b03818560208601612069565b611b0c816121d5565b840191505092915050565b6000611b2282611f6a565b611b2c8185611fc2565b9350611b3c818560208601612069565b611b45816121d5565b840191505092915050565b6000611b5b82611f6a565b611b658185611fd3565b9350611b75818560208601612069565b80840191505092915050565b60008154611b8e8161209c565b611b988186611fc2565b94506001821660008114611bb35760018114611bc557611bf8565b60ff1983168652602086019350611bf8565b611bce85611f3f565b60005b83811015611bf057815481890152600182019150602081019050611bd1565b808801955050505b50505092915050565b60008154611c0e8161209c565b611c188186611fd3565b94506001821660008114611c335760018114611c4457611c77565b60ff19831686528186019350611c77565b611c4d85611f3f565b60005b83811015611c6f57815481890152600182019150602081019050611c50565b838801955050505b50505092915050565b6000611c8d601383611fc2565b9150611c98826121e6565b602082019050919050565b6000611cb0600c83611fc2565b9150611cbb8261220f565b602082019050919050565b6000611cd3601783611fc2565b9150611cde82612238565b602082019050919050565b6000611cf6600c83611fc2565b9150611d0182612261565b602082019050919050565b6000611d19602483611fc2565b9150611d248261228a565b604082019050919050565b6000611d3b8284611b50565b915081905092915050565b6000611d528284611c01565b915081905092915050565b6000602082019050611d7260008301846119ed565b92915050565b6000604082019050611d8d60008301856119ed565b8181036020830152611d9f8184611b81565b90509392505050565b60006020820190508181036000830152611dc281846119fc565b905092915050565b60006020820190508181036000830152611de48184611a5a565b905092915050565b6000602082019050611e016000830184611acf565b92915050565b60006020820190508181036000830152611e218184611b17565b905092915050565b60006020820190508181036000830152611e4281611c80565b9050919050565b60006020820190508181036000830152611e6281611ca3565b9050919050565b60006020820190508181036000830152611e8281611cc6565b9050919050565b60006020820190508181036000830152611ea281611ce9565b9050919050565b60006020820190508181036000830152611ec281611d0c565b9050919050565b6000611ed3611ee4565b9050611edf82826120ce565b919050565b6000604051905090565b600067ffffffffffffffff821115611f0957611f086121a6565b5b611f12826121d5565b9050602081019050919050565b6000819050602082019050919050565b6000819050602082019050919050565b60008190508160005260206000209050919050565b600081519050919050565b600081519050919050565b600081519050919050565b6000602082019050919050565b6000602082019050919050565b600082825260208201905092915050565b600082825260208201905092915050565b600082825260208201905092915050565b600082825260208201905092915050565b600081905092915050565b6000611fe982612050565b9150611ff483612050565b92508282101561200757612006612148565b5b828203905092915050565b600061201d82612030565b9050919050565b60008115159050919050565b600073ffffffffffffffffffffffffffffffffffffffff82169050919050565b6000819050919050565b82818337600083830152505050565b60005b8381101561208757808201518184015260208101905061206c565b83811115612096576000848401525b50505050565b600060028204905060018216806120b457607f821691505b602082108114156120c8576120c7612177565b5b50919050565b6120d7826121d5565b810181811067ffffffffffffffff821117156120f6576120f56121a6565b5b80604052505050565b600061210a82612050565b91507fffffffffffffffffffffffffffffffffffffffffffffffffffffffffffffffff82141561213d5761213c612148565b5b600182019050919050565b7f4e487b7100000000000000000000000000000000000000000000000000000000600052601160045260246000fd5b7f4e487b7100000000000000000000000000000000000000000000000000000000600052602260045260246000fd5b7f4e487b7100000000000000000000000000000000000000000000000000000000600052604160045260246000fd5b6000601f19601f8301169050919050565b7f41646d696e20616c726561647920616464656400000000000000000000000000600082015250565b7f4e6f7420616e2061646d696e0000000000000000000000000000000000000000600082015250565b7f5265717565737420616c72656164792070656e64696e67000000000000000000600082015250565b7f4e6f20737563682066696c650000000000000000000000000000000000000000600082015250565b7f4e6f2070656e64696e6720726571756573747320666f7220746869732061646460008201527f7265737300000000000000000000000000000000000000000000000000000000602082015250565b6122e281612012565b81146122ed57600080fd5b50565b6122f981612050565b811461230457600080fd5b5056fea2646970667358221220df480affe5a31d9f82dc8334f2be85976debbaea2e4fdfd9239994ee5fdd5b2764736f6c63430008040033",
  "linkReferences": {},
  "deployedLinkReferences": {}
}