{
  "_format": "hh-sol-artifact-1",
  "contractName": "Piracy",
  "sourceName": "contracts/Piracy.sol",
  "abi": [
    {
      "inputs": [],
      "stateMutability": "nonpayable",
      "type": "constructor"
    },
    {
      "anonymous": false,
      "inputs": [
        {
          "indexed": false,
          "internalType": "address",
          "name": "from",
          "type": "address"
        },
        {
          "indexed": false,
          "internalType": "string",
          "name": "file",
          "type": "string"
        }
      ],
      "name": "newFile",
      "type": "event"
    },
    {
      "inputs": [
        {
          "internalType": "address",
          "name": "addr",
          "type": "address"
        }
      ],
      "name": "addAdmin",
      "outputs": [],
      "stateMutability": "nonpayable",
      "type": "function"
    },
    {
      "inputs": [
        {
          "internalType": "string",
          "name": "file",
          "type": "string"
        }
      ],
      "name": "addFile",
      "outputs": [],
      "stateMutability": "nonpayable",
      "type": "function"
    },
    {
      "inputs": [
        {
          "internalType": "address",
          "name": "",
          "type": "address"
        }
      ],
      "name": "admins",
      "outputs": [
        {
          "internalType": "bool",
          "name": "",
          "type": "bool"
        }
      ],
      "stateMutability": "view",
      "type": "function"
    },
    {
      "inputs": [
        {
          "internalType": "address",
          "name": "addr",
          "type": "address"
        }
      ],
      "name": "approve",
      "outputs": [],
      "stateMutability": "nonpayable",
      "type": "function"
    },
    {
      "inputs": [
        {
          "internalType": "uint256",
          "name": "",
          "type": "uint256"
        }
      ],
      "name": "approved",
      "outputs": [
        {
          "internalType": "string",
          "name": "",
          "type": "string"
        }
      ],
      "stateMutability": "view",
      "type": "function"
    },
    {
      "inputs": [
        {
          "internalType": "string",
          "name": "",
          "type": "string"
        }
      ],
      "name": "approvedRequests",
      "outputs": [
        {
          "internalType": "address",
          "name": "",
          "type": "address"
        }
      ],
      "stateMutability": "view",
      "type": "function"
    },
    {
      "inputs": [
        {
          "internalType": "address",
          "name": "addr",
          "type": "address"
        }
      ],
      "name": "checkIsAdmin",
      "outputs": [
        {
          "internalType": "bool",
          "name": "",
          "type": "bool"
        }
      ],
      "stateMutability": "view",
      "type": "function"
    },
    {
      "inputs": [
        {
          "internalType": "string",
          "name": "a",
          "type": "string"
        },
        {
          "internalType": "string",
          "name": "b",
          "type": "string"
        }
      ],
      "name": "compareStrings",
      "outputs": [
        {
          "internalType": "bool",
          "name": "",
          "type": "bool"
        }
      ],
      "stateMutability": "pure",
      "type": "function"
    },
    {
      "inputs": [],
      "name": "getAllFiles",
      "outputs": [
        {
          "internalType": "string[]",
          "name": "",
          "type": "string[]"
        }
      ],
      "stateMutability": "view",
      "type": "function"
    },
    {
      "inputs": [
        {
          "internalType": "string",
          "name": "file",
          "type": "string"
        }
      ],
      "name": "getFileOwner",
      "outputs": [
        {
          "internalType": "address",
          "name": "",
          "type": "address"
        }
      ],
      "stateMutability": "view",
      "type": "function"
    },
    {
      "inputs": [
        {
          "internalType": "address",
          "name": "",
          "type": "address"
        }
      ],
      "name": "requests",
      "outputs": [
        {
          "internalType": "string",
          "name": "",
          "type": "string"
        }
      ],
      "stateMutability": "view",
      "type": "function"
    }
  ],
  "bytecode": "0x608060405234801561001057600080fd5b5033600160006101000a81548173ffffffffffffffffffffffffffffffffffffffff021916908373ffffffffffffffffffffffffffffffffffffffff1602179055506001600260003373ffffffffffffffffffffffffffffffffffffffff1673ffffffffffffffffffffffffffffffffffffffff16815260200190815260200160002060006101000a81548160ff0219169083151502179055506117bc806100b96000396000f3fe608060405234801561001057600080fd5b50600436106100a95760003560e01c80637d4061e6116100715780637d4061e61461018a578063bed34bba146101ba578063d953689d146101ea578063daea85c51461021a578063eb9b9b6414610236578063ff24b5d514610252576100a9565b806338fa8f58146100ae578063429b62e5146100de578063470933e11461010e578063704802751461013e57806374adad1d1461015a575b600080fd5b6100c860048036038101906100c39190610ee7565b610270565b6040516100d591906112e3565b60405180910390f35b6100f860048036038101906100f39190610ebe565b610365565b6040516101059190611350565b60405180910390f35b61012860048036038101906101239190610ee7565b610385565b60405161013591906112e3565b60405180910390f35b61015860048036038101906101539190610ebe565b6103ce565b005b610174600480360381019061016f9190610ebe565b610510565b604051610181919061136b565b60405180910390f35b6101a4600480360381019061019f9190610f94565b6105b0565b6040516101b1919061136b565b60405180910390f35b6101d460048036038101906101cf9190610f28565b61065c565b6040516101e19190611350565b60405180910390f35b61020460048036038101906101ff9190610ebe565b6106b5565b6040516102119190611350565b60405180910390f35b610234600480360381019061022f9190610ebe565b61070b565b005b610250600480360381019061024b9190610ee7565b610aad565b005b61025a610c23565b604051610267919061132e565b60405180910390f35b60008073ffffffffffffffffffffffffffffffffffffffff1660048360405161029991906112b5565b908152602001604051809103902060009054906101000a900473ffffffffffffffffffffffffffffffffffffffff1673ffffffffffffffffffffffffffffffffffffffff16141561031f576040517f08c379a0000000000000000000000000000000000000000000000000000000008152600401610316906113ed565b60405180910390fd5b60048260405161032f91906112b5565b908152602001604051809103902060009054906101000a900473ffffffffffffffffffffffffffffffffffffffff169050919050565b60026020528060005260406000206000915054906101000a900460ff1681565b6004818051602081018201805184825260208301602085012081835280955050505050506000915054906101000a900473ffffffffffffffffffffffffffffffffffffffff1681565b600160009054906101000a900473ffffffffffffffffffffffffffffffffffffffff1673ffffffffffffffffffffffffffffffffffffffff163373ffffffffffffffffffffffffffffffffffffffff161461042857600080fd5b600260008273ffffffffffffffffffffffffffffffffffffffff1673ffffffffffffffffffffffffffffffffffffffff16815260200190815260200160002060009054906101000a900460ff16156104b5576040517f08c379a00000000000000000000000000000000000000000000000000000000081526004016104ac9061138d565b60405180910390fd5b6001600260008373ffffffffffffffffffffffffffffffffffffffff1673ffffffffffffffffffffffffffffffffffffffff16815260200190815260200160002060006101000a81548160ff02191690831515021790555050565b6003602052806000526040600020600091509050805461052f90611593565b80601f016020809104026020016040519081016040528092919081815260200182805461055b90611593565b80156105a85780601f1061057d576101008083540402835291602001916105a8565b820191906000526020600020905b81548152906001019060200180831161058b57829003601f168201915b505050505081565b600581815481106105c057600080fd5b9060005260206000200160009150905080546105db90611593565b80601f016020809104026020016040519081016040528092919081815260200182805461060790611593565b80156106545780601f1061062957610100808354040283529160200191610654565b820191906000526020600020905b81548152906001019060200180831161063757829003601f168201915b505050505081565b60008160405160200161066f91906112b5565b604051602081830303815290604052805190602001208360405160200161069691906112b5565b6040516020818303038152906040528051906020012014905092915050565b6000600260008373ffffffffffffffffffffffffffffffffffffffff1673ffffffffffffffffffffffffffffffffffffffff16815260200190815260200160002060009054906101000a900460ff169050919050565b600260003373ffffffffffffffffffffffffffffffffffffffff1673ffffffffffffffffffffffffffffffffffffffff16815260200190815260200160002060009054906101000a900460ff16610797576040517f08c379a000000000000000000000000000000000000000000000000000000000815260040161078e906113ad565b60405180910390fd5b610877600360008373ffffffffffffffffffffffffffffffffffffffff1673ffffffffffffffffffffffffffffffffffffffff16815260200190815260200160002080546107e490611593565b80601f016020809104026020016040519081016040528092919081815260200182805461081090611593565b801561085d5780601f106108325761010080835404028352916020019161085d565b820191906000526020600020905b81548152906001019060200180831161084057829003601f168201915b50505050506040518060200160405280600081525061065c565b156108b7576040517f08c379a00000000000000000000000000000000000000000000000000000000081526004016108ae9061140d565b60405180910390fd5b6005600360008373ffffffffffffffffffffffffffffffffffffffff1673ffffffffffffffffffffffffffffffffffffffff1681526020019081526020016000209080600181540180825580915050600190039060005260206000200160009091909190915090805461092990611593565b610934929190610cfc565b50806004600360008473ffffffffffffffffffffffffffffffffffffffff1673ffffffffffffffffffffffffffffffffffffffff16815260200190815260200160002060405161098491906112cc565b908152602001604051809103902060006101000a81548173ffffffffffffffffffffffffffffffffffffffff021916908373ffffffffffffffffffffffffffffffffffffffff1602179055507f6ddb52e96a25fdf8b793ece0ecd51ba586f9ef26091508eafab768a59c8881a781600360008473ffffffffffffffffffffffffffffffffffffffff1673ffffffffffffffffffffffffffffffffffffffff168152602001908152602001600020604051610a3f9291906112fe565b60405180910390a160405180602001604052806000815250600360008373ffffffffffffffffffffffffffffffffffffffff1673ffffffffffffffffffffffffffffffffffffffff1681526020019081526020016000209080519060200190610aa9929190610d89565b5050565b610b8d600360003373ffffffffffffffffffffffffffffffffffffffff1673ffffffffffffffffffffffffffffffffffffffff1681526020019081526020016000208054610afa90611593565b80601f0160208091040260200160405190810160405280929190818152602001828054610b2690611593565b8015610b735780601f10610b4857610100808354040283529160200191610b73565b820191906000526020600020905b815481529060010190602001808311610b5657829003601f168201915b50505050506040518060200160405280600081525061065c565b610bcc576040517f08c379a0000000000000000000000000000000000000000000000000000000008152600401610bc3906113cd565b60405180910390fd5b80600360003373ffffffffffffffffffffffffffffffffffffffff1673ffffffffffffffffffffffffffffffffffffffff1681526020019081526020016000209080519060200190610c1f929190610d89565b5050565b60606005805480602002602001604051908101604052809291908181526020016000905b82821015610cf3578382906000526020600020018054610c6690611593565b80601f0160208091040260200160405190810160405280929190818152602001828054610c9290611593565b8015610cdf5780601f10610cb457610100808354040283529160200191610cdf565b820191906000526020600020905b815481529060010190602001808311610cc257829003601f168201915b505050505081526020019060010190610c47565b50505050905090565b828054610d0890611593565b90600052602060002090601f016020900481019282610d2a5760008555610d78565b82601f10610d3b5780548555610d78565b82800160010185558215610d7857600052602060002091601f016020900482015b82811115610d77578254825591600101919060010190610d5c565b5b509050610d859190610e0f565b5090565b828054610d9590611593565b90600052602060002090601f016020900481019282610db75760008555610dfe565b82601f10610dd057805160ff1916838001178555610dfe565b82800160010185558215610dfe579182015b82811115610dfd578251825591602001919060010190610de2565b5b509050610e0b9190610e0f565b5090565b5b80821115610e28576000816000905550600101610e10565b5090565b6000610e3f610e3a84611452565b61142d565b905082815260208101848484011115610e5757600080fd5b610e62848285611551565b509392505050565b600081359050610e7981611758565b92915050565b600082601f830112610e9057600080fd5b8135610ea0848260208601610e2c565b91505092915050565b600081359050610eb88161176f565b92915050565b600060208284031215610ed057600080fd5b6000610ede84828501610e6a565b91505092915050565b600060208284031215610ef957600080fd5b600082013567ffffffffffffffff811115610f1357600080fd5b610f1f84828501610e7f565b91505092915050565b60008060408385031215610f3b57600080fd5b600083013567ffffffffffffffff811115610f5557600080fd5b610f6185828601610e7f565b925050602083013567ffffffffffffffff811115610f7e57600080fd5b610f8a85828601610e7f565b9150509250929050565b600060208284031215610fa657600080fd5b6000610fb484828501610ea9565b91505092915050565b6000610fc98383611064565b905092915050565b610fda81611509565b82525050565b6000610feb826114a8565b610ff581856114cb565b93508360208202850161100785611483565b8060005b8581101561104357848403895281516110248582610fbd565b945061102f836114be565b925060208a0199505060018101905061100b565b50829750879550505050505092915050565b61105e8161151b565b82525050565b600061106f826114b3565b61107981856114dc565b9350611089818560208601611560565b61109281611654565b840191505092915050565b60006110a8826114b3565b6110b281856114ed565b93506110c2818560208601611560565b6110cb81611654565b840191505092915050565b60006110e1826114b3565b6110eb81856114fe565b93506110fb818560208601611560565b80840191505092915050565b6000815461111481611593565b61111e81866114ed565b94506001821660008114611139576001811461114b5761117e565b60ff198316865260208601935061117e565b61115485611493565b60005b8381101561117657815481890152600182019150602081019050611157565b808801955050505b50505092915050565b6000815461119481611593565b61119e81866114fe565b945060018216600081146111b957600181146111ca576111fd565b60ff198316865281860193506111fd565b6111d385611493565b60005b838110156111f5578154818901526001820191506020810190506111d6565b838801955050505b50505092915050565b60006112136013836114ed565b915061121e82611665565b602082019050919050565b6000611236600c836114ed565b91506112418261168e565b602082019050919050565b60006112596017836114ed565b9150611264826116b7565b602082019050919050565b600061127c600c836114ed565b9150611287826116e0565b602082019050919050565b600061129f6024836114ed565b91506112aa82611709565b604082019050919050565b60006112c182846110d6565b915081905092915050565b60006112d88284611187565b915081905092915050565b60006020820190506112f86000830184610fd1565b92915050565b60006040820190506113136000830185610fd1565b81810360208301526113258184611107565b90509392505050565b600060208201905081810360008301526113488184610fe0565b905092915050565b60006020820190506113656000830184611055565b92915050565b60006020820190508181036000830152611385818461109d565b905092915050565b600060208201905081810360008301526113a681611206565b9050919050565b600060208201905081810360008301526113c681611229565b9050919050565b600060208201905081810360008301526113e68161124c565b9050919050565b600060208201905081810360008301526114068161126f565b9050919050565b6000602082019050818103600083015261142681611292565b9050919050565b6000611437611448565b905061144382826115c5565b919050565b6000604051905090565b600067ffffffffffffffff82111561146d5761146c611625565b5b61147682611654565b9050602081019050919050565b6000819050602082019050919050565b60008190508160005260206000209050919050565b600081519050919050565b600081519050919050565b6000602082019050919050565b600082825260208201905092915050565b600082825260208201905092915050565b600082825260208201905092915050565b600081905092915050565b600061151482611527565b9050919050565b60008115159050919050565b600073ffffffffffffffffffffffffffffffffffffffff82169050919050565b6000819050919050565b82818337600083830152505050565b60005b8381101561157e578082015181840152602081019050611563565b8381111561158d576000848401525b50505050565b600060028204905060018216806115ab57607f821691505b602082108114156115bf576115be6115f6565b5b50919050565b6115ce82611654565b810181811067ffffffffffffffff821117156115ed576115ec611625565b5b80604052505050565b7f4e487b7100000000000000000000000000000000000000000000000000000000600052602260045260246000fd5b7f4e487b7100000000000000000000000000000000000000000000000000000000600052604160045260246000fd5b6000601f19601f8301169050919050565b7f41646d696e20616c726561647920616464656400000000000000000000000000600082015250565b7f4e6f7420616e2061646d696e0000000000000000000000000000000000000000600082015250565b7f5265717565737420616c72656164792070656e64696e67000000000000000000600082015250565b7f4e6f20737563682066696c650000000000000000000000000000000000000000600082015250565b7f4e6f2070656e64696e6720726571756573747320666f7220746869732061646460008201527f7265737300000000000000000000000000000000000000000000000000000000602082015250565b61176181611509565b811461176c57600080fd5b50565b61177881611547565b811461178357600080fd5b5056fea264697066735822122040236eb08aed506a9ad0565b0af9b0f1c723dda063a95b8f00e8921f4264503164736f6c63430008040033",
  "linkReferences": {},
  "deployedLinkReferences": {}
}